:100000000C94A4050C94C1050C94C1050C94C10575
:100010000C94C1050C94C1050C94C1050C94C10548
:100020000C94C1050C94C1050C94C3050C94C10536
:100030000C94C1050C94C1050C94C1050C94C10528
:100040000C94C1050C94C1050C94C1050C94C10518
:100050000C94C105A0002400000000000000000076
:100060000000000000000000000000000000000090
:100070000000000000000000000000000000000080
:100080000000000000000000000000000000000070
:100090000000000080284A08204810000040C410DA
:1000A000821C7384010000208028C5082784380240
:1000B00000208A28C584504A01809C5080806F307F
:1000C0002184100200208A10A48C41441144004174
:1000D0008000C58C0184A80F1C208A10E291228A1E
:1000E00001301C2600808F900284008200108A0854
:1000F0008494220A01440001800065900784004234
:100100000011E43BC38921C410828020008042009A
:10011000004800400008000000000000000000004F
:1001200000000000000000000000000000000000CF
:1001300000000000000000000000000000000000BF
:1001400000000000000000000000000000000000AF
:10015000000000000000000000000000000000009F
:10016000000000000000000000000000000000008F
:10017000000000000000000000000000000000007F
:1001800000000000CC3CF7FE77D7F17DF6668F3D8E
:10019000F7F7DE7B7B160C01924825A514922025EB
:1001A000B695524A55658C2A4A2208015239218D4A
:1001B000119E2023B695524A42A4AC4421228802C3
:1001C000DA492185D0922827AA964E3A44A4AA84D7
:1001D00010420800324A21A550922825A396424A8F
:1001E00045A4AA8A48420800623FF6FE61D791FD05
:1001F000F765875DE71853DB794208001C000000B3
:1002000000000000000000030000000000860C0059
:1002100000000000000000000000000000000000DE
:10022000000000F8000000000000000000000000D6
:1002300000000000000000000000000000000000BE
:1002400000000000000000000000000000000000AE
:10025000000000000000000000000000000000009E
:10026000000000000000000000000000000000008E
:1002700000000000040C8001028390610000000077
:100280000000000000440478080800010102004159
:100290000000000020000000004208488039C79D8F
:1002A000E3CE384DD6638F7BF6F6DC727B4208488E
:1002B0000049211D91922047AA94521222A4AC4CCD
:1002C0002943184DC049210591922045AA94521204
:1002D0002425AB4C5142884AC03FC799E3D7A1EDD2
:1002E000EA648E3BC33853927842087800000000DD
:1002F0008000200000000202000000800044040092
:10030000000000006000380000000703000000C08B
:1003100000000000000000000000000000000000DD
:1003200000000000000000000000000000000000CD
:10033000000000000000000000000000000080E05D
:10034000F0F038383C1C1C1C1C0E0E0E0E0E06065F
:10035000070707070707070707070707070707072D
:100360000606060606060E0C0C0C0C1818181000D3
:1003700000000000000000C0C0C0C08000000000FD
:10038000000000000000000000000000000000006D
:10039000000000000000000000000000000000005D
:1003A000000000000000000000000000000000004D
:1003B000000000000000000000000000000000003D
:1003C000000000000000000000000000000000002D
:1003D000000000000000000000000000000000001D
:1003E000000000000000000000000000000000000D
:1003F00000000000000000000000000000000000FD
:1004000000000000000000000000000000000000EC
:1004100000000000000000000000000000000000DC
:1004200000000000000000000000000000000000CC
:10043000000000000000000000CEDFBF7F7FFEFC58
:10044000F8F8F0F0F0E0E0F8FCFCFCFCFCFCFCFE52
:10045000FEFEFEFEFEFEFEFEFEFCFCFCFCFCFCF8CE
:10046000F8F8F0F0F080000080808080808080C00C
:10047000C0C0C0E0E3FFFFFF7E000000001C3C3C6A
:100480007CFCFCFCF8E00000000000000000000024
:1004900000000000000080C0E0607030303060601C
:1004A000E0000000008080800000000000E0F030EC
:1004B000303000E0F030303000000080808080007C
:1004C00000000000000080808000000000000000AC
:1004D000000000000080C0E0E0000000000000001C
:1004E0000000000000C0E06030303060E0800000BC
:1004F00000000000000000000000000000000000FC
:1005000000000000000000000000000000000000EB
:1005100000000000000000000000000000000000DB
:1005200000000000000000000000000000000000CB
:1005300000000000000001073FFEFCE1810303030F
:10054000070707070F0F0F0F0F1F1F1F1F1F1F1F6B
:100550001F3F3F3F3F3F3F3F3F3F3F3F1F1F1F1F4B
:100560001F1F1F1F0F0F0F0F0F07070703030301A5
:1005700081E1F8F8000000000080C0F0FCFFFFFF00
:100580003F07000000000000000000000000000025
:1005900000007FFFC080800000008080C000FEFF60
:1005A00083010183C7FE7C0003FFFF03030303FFF6
:1005B000FF0303037CFEDF9B19191B9F9E0000FEB7
:1005C000FF9B99191B9F9F9C0000000000000000EA
:1005D000000101FFFF00000000000080808000009B
:1005E00000FFFF8000000080FFFF0000000000000F
:1005F00000000000000000000000000000000000FB
:1006000000000000000000000000000000000000EA
:1006100000000000000000000000000000000000DA
:1006200000000000000000000000000000000000CA
:1006300000000000001FFFFFFFF880000000000026
:1006400000000000000000000000000000000000AA
:10065000000000000000000000000000000000009A
:10066000000000000000000080E0F8FEFFCFE3F093
:10067000F8FCFEFE7F3F1F0F070301000000000093
:10068000000000000000000000000000000000006A
:10069000010103030303010101000001010303033E
:1006A000010000000003030000000003030000003D
:1006B0000000010303030303010000000101030321
:1006C0000303010100000000000000000003030319
:1006D0000303030300000003030300000000010103
:1006E00003030301010000000000000000000000FF
:1006F00000000000000000000000000000000000FA
:1007000000000000000000000000000000000000E9
:1007100000000000000000000000000000000000D9
:10072000C0E0E070703838381C1C1C0C0C0C0C003D
:100730000000033FFFFFFFFCF0C0808000000000CE
:1007400000000000000000000000000000000000A9
:100750000000000000000000000000000000008019
:10076000C0F0F8FEFFFF7F7F3F1F6F6F6763C1C060
:10077000C0C0C08080000000000000000000000039
:100780000000000000000000000000000000000069
:100790000000000000000000000000000000000059
:1007A0000000000000000000000000000000000049
:1007B0000000000000000000000000000000000039
:1007C0000000000000000000000000000000000029
:1007D0000000000000000000000000000000000019
:1007E0000000000000000000000000000000000009
:1007F00000000000000000000000000000000000F9
:1008000000000000000000000000000000000000E8
:1008100000000000000000000000001FFFFFF0C00B
:100820008000000000000000000000000000000048
:1008300000030F1F3F7FFFFFFFFEFEFCFCF8F8F8F0
:10084000F0F0F0F0E0E0E0E0E0E0C0C0C0C0C0C028
:10085000C0E0E0E0F0F0F8FCFCFEFFFFFFFFFFFF70
:10086000FFFCFEFEFEFEFEFEFEFFFFFFFFFFFFFFA2
:10087000FFFFFFFEFCF8F0E0C000000000000000F9
:100880000000000000000000000000000000000068
:100890000000000000000000000000000000000058
:1008A0000000000000000000000000000000000048
:1008B0000000000000000000000000000000000038
:1008C0000000000000000000000000000000000028
:1008D0000000000000000000000000000000000018
:1008E0000000000000000000000000000000000008
:1008F00000000000000000000000000000000000F8
:1009000000000000000000000000000000000000E7
:100910000000000000000000000103070F1E3C7CE7
:1009200078F0F0E0E0C0C08080000000000000002F
:10093000000000010103030307070F0F0F0F1F1F24
:100940001F1F1F3F3F3F3F3F3F3F3F3F3F3F3F3F17
:100950003F7F7F7F7F7F7F3F3F3F3F3F3F3F3F3F27
:100960003F1F1F1F1F1F1F0F0F0F0F0F0707070727
:100970000707070703000000000000000000000058
:1009800000000000000000000000000000F0380837
:10099000C0E02020600838F000000000101898F82F
:1009A0003000F01818F8E00030F8F80000C0E0B0AF
:1009B000F88000000000F8E0F03818E0E0A0E0E087
:1009C00000F800F8F880A0E0E0E000E06020E0E05F
:1009D00000E06020E0E02020E0C0E0E000E0E00097
:1009E000E06020E0C0000000E0F01818D8D8D0F88F
:1009F000F82060E000F8F8D8D8700000000000008F
:100A000000000000000000000000000000000000E6
:100A100000000000000000000000000000000101D4
:100A2000030307070F0F1F1F3E3E3E7C7C7C78F8B8
:100A3000F8F8F8F8F0F0F0F0F0F0F0F0F0F0F0F096
:100A4000F0F0F0F0F0F0F0F0F0F0F0F0F0F0F8F896
:100A5000F8F8F8F8F8F8F8F8FCFCFC7C7C7C7C7E74
:100A60003E3E3E3E1E1F1F0F070301000000000018
:100A70000000000000000000000000000000000076
:100A8000000000000000000000070E080103020241
:100A900003080E0700000000030303020200030323
:100AA0000203010002030302000000000300000033
:100AB000000003000103020303020203000300031A
:100AC000030103020303000B0B0A0F0700030000DE
:100AD0000103020203010303020303000F020203E6
:100AE00001000000000303020203030303020303E7
:100AF00000030300010302000000000000000000EA
:100B000000000000000000000000000000000000E5
:100B100000000000000000000000000000000000D5
:100B200000000000000000000000000000000001C4
:100B30000101010101010303030303030303030391
:100B4000030303030303030011241FBECFE5D8E012
:100B5000DEBFCDBF10E0A0E6B0E0E2EBF8E102C0FE
:100B600005900D92AE3AB107D9F720E0AEEAB0E0B9
:100B700001C01D92A23BB207E1F70E940E060C9441
:100B8000570C0C9400001F920F920FB60F92112475
:100B90002F938F939F939BB382E089278BBB809188
:100BA000B0009091B10001969093B1008093B00095
:100BB0008091B0009091B10080319742D8F080913F
:100BC000AE009091AF0001969093AF008093AE007D
:100BD0008091AE009091AF000A9740F09BB381E006
:100BE00089278BBB1092AF001092AE001092B1001B
:100BF0001092B0009F918F912F910F900FBE0F9088
:100C00001F90189589B78D7F89BF89E083BF12BE79
:100C100085E08CBF89B7826089BF089583E08ABB75
:100C200081E08BBB0E94EF0781E00E940B080E94CD
:100C30000206789487EA91E60197F1F700C0000078
:100C400087EA91E60197F1F700C000000E94AC0925
:100C5000C12CE12C00E010E020E030E044E064E54D
:100C600070E080E690E00E94650ADCE010E00BC0D6
:100C700041E06D2F8C2F0E941208CF5FCA37C1F759
:100C8000DF5FD03211F0C12FF3CF87EA91E60197F1
:100C9000F1F700C000000E94AC09C12CE12C00E07B
:100CA00010E020E030E044E064E570E087E790E0A9
:100CB0000E94650AEE24E39401E024E14AE76CE037
:100CC00080E00E94D70B87EA91E60197F1F700C018
:100CD00000000E94AC09A12CE12C00E020E030E0F3
:100CE00040E050E060E088E293E00E94CE0987EAAD
:100CF00091E60197F1F700C0000020E030E040E00D
:100D000050E061E088E293E00E94CE0987EA91E634
:100D10000197F1F700C000000E94AC0920E030E02C
:100D200040E050E060E088E293E00E94CE0987EA6C
:100D300091E60197F1F700C000002DEF3FEF4EEF75
:100D40005FEF64E088E293E00E94CE0987EA91E6D3
:100D50000197F1F700C0000020E030E040E050E0F3
:100D600062E088E293E00E94CE0987EA91E601976B
:100D7000F1F700C000000E94AC09EE24E39401E00A
:100D800025E045E061E081E00E94D70B00E020E231
:100D900044E660E08AE00E94D70B01E022E04AE0EE
:100DA00060E28EE60E942E0B24E14CE360E08CE3CF
:100DB0000E942E0B2FE146E460E08CE30E942E0B94
:100DC00087EA91E60197F1F700C000000E94AC09A4
:100DD000E12C00E010E022E330E044E064E570E064
:100DE0008BE890E00E94650A87EA91E60197F1F7A7
:100DF00000C00000EE24E39426E14AE26AE080E0CD
:100E00000E94D70B0F2EF4E1AF2EF02D0F2EF8E23B
:100E1000CF2EF02D0F2EF5E0EF2EF02D0AE02BE077
:100E200030E041E050E060E088E293E00E94CE09CB
:100E300020E04BEF15E0DBEFC6E10F2EFCE0FF2ECC
:100E4000F02D31C0122F87EA91E60197F1F700C02B
:100E50000000EE24E39400E026E14AE26AE080E04C
:100E60000E94D70B0F2EF4E1AF2EF02D0F2EF8E2DB
:100E7000CF2EF02DE12E0C2F2BE030E041E050E0A2
:100E800060E088E293E00E94CE093F2D3C0F4D2F99
:100E90002D2F210F832F90E088968B37910514F02A
:100EA000F19401C0C32F822F90E04496819754F2B1
:100EB000D42FD195C8CF982FD9018C91292F281BD9
:100EC000822F11962C911197621B1296ED91FC9135
:100ED00013976E9F90016F9F300D1124280F311DC5
:100EE000B901769567957695679576956795169687
:100EF000ED91FC911797E60FF71FE491F0E0277052
:100F00003327BF0102C0759567952A95E2F7862FB2
:100F1000817060FF0DC0292F30E018966D917C9193
:100F200019976217730724F419963C932E93189718
:100F30001A969C9190FF04C021E0811120E0822F3D
:100F400091FD842392FD842B0895F90180810895F9
:100F500093980000982F917080FF06C03FEF34BB3C
:100F6000642B65BB909804C014BA3FEF35BB909AD0
:100F700081FF02C0969A01C0969821FF02C0919805
:100F800001C0919A25FF02C0959801C0959A000072
:100F9000939A911102C083B301C080E0939800003E
:100FA00092B3926292BB08950F931F93CF93DF93F6
:100FB000D82F162F042FC22F2C2F40E060E080E0A6
:100FC0000E94A8078823C4F32C2F402F612F8D2F58
:100FD0000E94A807DF91CF911F910F91089584B3CC
:100FE0008FEF84BB15BA81B38B6681BB82B38262FB
:100FF00082BB82B3867B82BB0000000022E240E01D
:1010000062EE81E00E94D40722E240E060EC81E0E1
:101010000E94D407089522E2482F6EEA81E00E94E0
:10102000D40708950F931F93CF93DF93D82F042FE6
:10103000462F469546954695162F17708D3318F016
:10104000DD53C0E201C0C2E02C2F68EB81E00E94BA
:10105000D4072C2F4D2F60E081E00E94D4072C2F65
:1010600040E060E082E00E94D407002389F02C2F4A
:1010700040E060E082E00E94D407E1E0F0E0BF01E0
:1010800002C0660F771F1A95E2F7182F162B11C0B2
:101090002C2F40E060E082E00E94D407E1E0F0E025
:1010A000BF0102C0660F771F1A95E2F76095182FEF
:1010B00016232C2F4D2F60E081E00E94D4072C2FA7
:1010C000412F60E083E00E94D407DF91CF911F9110
:1010D0000F9108952F923F924F925F926F927F925D
:1010E0008F929F92AF92BF92CF92DF92EF92FF9238
:1010F0000F931F93CF93DF93CDB7DEB766970FB6ED
:10110000F894DEBF0FBECDBF9F838E836E87F986B6
:10111000E8866D83612C6894442441F8862F90E022
:101120009D878C87820F911D9B838A83C42ED12C2F
:101130001601200E311CAA24A394B12C6982C1018E
:1011400016016C0109C06894442445F8E981E35C08
:10115000E983FD81FD53FD832981822F90E0EA819F
:10116000FB81E817F9070CF4C7C0CD962C853D85A7
:10117000281739070CF0C0C03E858981831710F409
:101180008D8101C080E09981980FE92FF0E0F88B04
:10119000EF8700E010E01C82998B8A8B7801F8E0E1
:1011A000EF0EF11CE214F3040CF49DC00C151D05A8
:1011B0000CF099C0242D4C8168EB81E00E94D4078B
:1011C0002E853981321708F0A1C0242D4D8160E0B1
:1011D00081E00E94D407242D40E060EE81E00E946F
:1011E000D4078D818D3308F078C0EA81FB812F858B
:1011F00038892E173F070CF070C069887A880A87F3
:101200001B87FC8AEB8A0AC06980670C862D90E0F8
:10121000EA81FB818E179F070CF05DC0242D40E012
:1012200060E082E00E94D407242D40E060E082E08C
:101230000E94D407582EFA85FD8B2B852E8B00E05B
:1012400010E0912CE82EF12C872CC701E62C3C01F4
:10125000F02E2D893E8922153305DCF02C153D0535
:10126000C4F4A301002E02C0559547950A94E2F7F5
:101270004170288539856D898E2DEE81FF81099514
:1012800090E0002E02C0880F991F0A94E2F7982A76
:1012900008C0C50102C0880F991FFA94E2F78521A2
:1012A000982A0F5F1F4F2D893E892F5F3F4F3E8B3E
:1012B0002D8B0830110561F6782C242D492D60E026
:1012C00083E00E94D40773943CE3371508F09CCF69
:1012D000EB88FC8802C0EB88FC88242D40E06EEE91
:1012E00081E00E94D4078C818F5F8C8390E2E916A5
:1012F000F10411F0870152CFE2E04E1609F423CF3A
:10130000F0E24F1681F0411021CF0DC0242D40E0B6
:1013100060E081E00E94D407242D40E060EE81E08F
:101320000E94D40762CF66960FB6F894DEBF0FBE58
:10133000CDBFDF91CF911F910F91FF90EF90DF9084
:10134000CF90BF90AF909F908F907F906F905F9065
:101350004F903F902F9008951F93CF93DF9310E00D
:10136000D0E022E2412F68EB81E00E94D407CD2F2C
:1013700022E24C2F6D2F81E00E94D40722E24D2FF4
:101380006D2F83E00E94D407CF5FCD3389F71F5FB5
:10139000143039F7DF91CF911F9108954F925F92EA
:1013A0006F927F928F929F92AF92CF92EF92FF9225
:1013B0000F93CF93DF93CDB7DEB72B970FB6F8948B
:1013C000DEBF0FBECDBFDA01A9012A2FA983342FBA
:1013D0004A83FC016590749023017C826B82FC013E
:1013E000329685909490F4019E828D82049698871F
:1013F0008F83BA87A9876B87802F90E08615970522
:1014000010F00FEF060D8E2D90E08E179F0718F04D
:10141000EE24EA94E80C802F90E08C0D911D481684
:10142000590610F4C62CC01A8E2D90E08A0D911D1D
:10143000E817F90710F4A82CAE18C11008C0A110C5
:1014400006C0011104C0E11002C0C62CA82CBB23A9
:1014500034F4C20E552334F0A0E0B0E00FC05523A1
:1014600054F402C0A0E0B0E0AA37B105C4F4A30E62
:1014700040E050E006C0AA37B1058CF44032510577
:1014800074F4201B29833E193A83CE0101967C0116
:101490000A2D2C2D6A2F8BE597E00E946A0889851A
:1014A0009A852B960FB6F894DEBF0FBECDBFDF91A5
:1014B000CF910F91FF90EF90CF90AF909F908F9032
:1014C0007F906F905F904F9008952F923F924F9230
:1014D0005F926F927F928F929F92AF92BF92CF92C4
:1014E000DF92EF92FF920F931F93CF93DF93CDB7CD
:1014F000DEB72B970FB6F894DEBF0FBECDBF4C0101
:101500007A836983F42E522F432F38011E2DFB015D
:10151000859194912C0156944794569447945694EF
:1015200047945694479456944794FB0132962591DC
:101530003491ABEABAEA0E94340C1C013694279429
:10154000E11001C0C394D4012C91222309F46DC091
:10155000C201880F991F840D951DFC01F695E79532
:10156000FC83EB835A874B870F2EF0EEDF2EF02D96
:101570006C2D772767FD70957E836D83640D751DD7
:1015800078876F83B52E49878A849B84BB87AA8717
:101590008FED820F8F3548F500EE020F0032A0F07C
:1015A0008A859B8500520032E8F79B878A8700EC8A
:1015B000020FE02EE694E694E694E694E694ED9C21
:1015C000000D1124E39401C0E12CE29CE02C1124D5
:1015D000049D002D1124A22CC42C9301A4016F2D75
:1015E00089819A810E94CE0904C08B819C81880DDB
:1015F000991DAA85BB852D91BB87AA872A3029F41E
:10160000620C731C8B2C99840BC0112329F0EF8181
:10161000F8858E0E9F1E04C08D809E80880E991EB8
:10162000AA85BB852C912111B3CF2B960FB6F894C8
:10163000DEBF0FBECDBFDF91CF911F910F91FF9005
:10164000EF90DF90CF90BF90AF909F908F907F9062
:101650006F905F904F903F902F9008952F923F9200
:101660004F925F926F927F928F929F92AF92BF92B2
:10167000CF92DF92EF92FF920F931F93CF93DF935E
:1016800000D000D0CDB7DEB7182F362E4A8329837D
:10169000202E841317C0261718F4322E698303C036
:1016A0002981621748F4422D632D812F0E94120870
:1016B000339439813316B8F3422D6981812F0E940A
:1016C00012085EC08981681319C09A81911720F4AD
:1016D000812F192F8A8303C0EA811E1748F4422DF7
:1016E000632D812F0E9412081F5FFA811F17B8F324
:1016F000422D632D8A810E94120842C02A8121173F
:1017000038F4262F412F69818A810E942E0B38C020
:10171000A62EB12C3981632E712C6A187B088A8120
:10172000C82ED12C812F90E04601881A990AFC011D
:101730003196FC83EB83CE16DF06ECF02301C30168
:10174000B4010E94200C7501E60EF71E022D2E2D0D
:10175000412F632D812F0E942E0B1B812B813C81F9
:101760002F5F3F4F3C832B83640C751CC216D3063E
:1017700014F03E2CE4CF422D69818A810E94120828
:101780000F900F900F900F90DF91CF911F910F91BD
:10179000FF90EF90DF90CF90BF90AF909F908F9091
:1017A0007F906F905F904F903F902F900895CF92D1
:1017B000DF92EF92FF920F931F93CF93DF931F92CD
:1017C000CDB7DEB7D82E162FC22EE982002361F0E6
:1017D000CE0101967C01022F242F462F6D2D85EA24
:1017E00097E00E946A0822C0FF24FA94F40EF80ED3
:1017F0000981262F4F2D0E942E0BEE24EA94EC0C2B
:10180000E10E09812E2D4F2D6E2D8D2D0E942E0B58
:1018100009812E2D4D2D612F8D2D0E942E0B0981BA
:101820002E2D4F2D612F8F2D0E942E0B0F90DF91AB
:10183000CF911F910F91FF90EF90DF90CF9008957F
:1018400097FB072E16F4009407D077FD09D00E946D
:10185000430C07FC05D03EF4909581959F4F089569
:10186000709561957F4F0895A29FB001B39FC0010D
:10187000A39F700D811D1124911DB29F700D811DBC
:101880001124911D0895AA1BBB1B51E107C0AA1F7B
:10189000BB1FA617B70710F0A61BB70B881F991F11
:1018A0005A95A9F780959095BC01CD010895F894BB
:0218B000FFCF68
:1018B20064726177696E6720776974686F757420E6
:1018C2007368616465720064726177696E6720771C
:1018D2006974682073686164657200496D61676547
:1018E200636C697070696E6720616E640A6D756CF5
:0E18F20074696C696E65207465737421000062
:00000001FF
